{
    "_format": "hh-sol-artifact-1",
    "contractName": "ERCTokenLock",
    "sourceName": "contracts/erc20.sol",
    "abi": [
        {
            "inputs": [
                {
                    "internalType": "address",
                    "name": "_token",
                    "type": "address"
                }
            ],
            "stateMutability": "nonpayable",
            "type": "constructor"
        },
        {
            "anonymous": false,
            "inputs": [
                {
                    "indexed": false,
                    "internalType": "address",
                    "name": "sender",
                    "type": "address"
                },
                {
                    "indexed": false,
                    "internalType": "uint256",
                    "name": "amount",
                    "type": "uint256"
                }
            ],
            "name": "TokensLocked",
            "type": "event"
        },
        {
            "anonymous": false,
            "inputs": [
                {
                    "indexed": false,
                    "internalType": "address",
                    "name": "sender",
                    "type": "address"
                },
                {
                    "indexed": false,
                    "internalType": "uint256",
                    "name": "amount",
                    "type": "uint256"
                }
            ],
            "name": "TokensUnlocked",
            "type": "event"
        },
        {
            "inputs": [],
            "name": "getBalance",
            "outputs": [
                {
                    "internalType": "uint256",
                    "name": "",
                    "type": "uint256"
                }
            ],
            "stateMutability": "view",
            "type": "function"
        },
        {
            "inputs": [
                {
                    "internalType": "uint256",
                    "name": "_amount",
                    "type": "uint256"
                }
            ],
            "name": "lockTokens",
            "outputs": [],
            "stateMutability": "nonpayable",
            "type": "function"
        },
        {
            "inputs": [],
            "name": "token",
            "outputs": [
                {
                    "internalType": "contract IERC20",
                    "name": "",
                    "type": "address"
                }
            ],
            "stateMutability": "view",
            "type": "function"
        },
        {
            "inputs": [
                {
                    "internalType": "uint256",
                    "name": "_amount",
                    "type": "uint256"
                },
                {
                    "internalType": "address",
                    "name": "_resiver",
                    "type": "address"
                }
            ],
            "name": "unlockTokens",
            "outputs": [],
            "stateMutability": "nonpayable",
            "type": "function"
        }
    ],
    "bytecode": "60806040525f600260146101000a81548160ff021916908315150217905550348015610029575f80fd5b50604051610bcb380380610bcb833981810160405281019061004b9190610136565b60015f819055508060015f6101000a81548173ffffffffffffffffffffffffffffffffffffffff021916908373ffffffffffffffffffffffffffffffffffffffff1602179055503360025f6101000a81548173ffffffffffffffffffffffffffffffffffffffff021916908373ffffffffffffffffffffffffffffffffffffffff16021790555050610161565b5f80fd5b5f73ffffffffffffffffffffffffffffffffffffffff82169050919050565b5f610105826100dc565b9050919050565b610115816100fb565b811461011f575f80fd5b50565b5f815190506101308161010c565b92915050565b5f6020828403121561014b5761014a6100d8565b5b5f61015884828501610122565b91505092915050565b610a5d8061016e5f395ff3fe608060405234801561000f575f80fd5b506004361061004a575f3560e01c806312065fe01461004e5780636e27d8891461006c5780637fde442414610088578063fc0c546a146100a4575b5f80fd5b6100566100c2565b60405161006391906105d6565b60405180910390f35b6100866004803603810190610081919061061d565b610161565b005b6100a2600480360381019061009d91906106a2565b6102a3565b005b6100ac610543565b6040516100b9919061073b565b60405180910390f35b5f60015f9054906101000a900473ffffffffffffffffffffffffffffffffffffffff1673ffffffffffffffffffffffffffffffffffffffff166370a08231306040518263ffffffff1660e01b815260040161011d9190610763565b602060405180830381865afa158015610138573d5f803e3d5ffd5b505050506040513d601f19601f8201168201806040525081019061015c9190610790565b905090565b610169610568565b5f81116101ab576040517f08c379a00000000000000000000000000000000000000000000000000000000081526004016101a290610815565b60405180910390fd5b60015f9054906101000a900473ffffffffffffffffffffffffffffffffffffffff1673ffffffffffffffffffffffffffffffffffffffff166323b872dd3330846040518463ffffffff1660e01b815260040161020993929190610833565b6020604051808303815f875af1158015610225573d5f803e3d5ffd5b505050506040513d601f19601f82011682018060405250810190610249919061089d565b503373ffffffffffffffffffffffffffffffffffffffff167fac87f20a77d28ee8bbb58ec87ea8fa968b3393efae1a368fd50b767c2847391c8260405161029091906105d6565b60405180910390a26102a06105b5565b50565b60025f9054906101000a900473ffffffffffffffffffffffffffffffffffffffff1673ffffffffffffffffffffffffffffffffffffffff163373ffffffffffffffffffffffffffffffffffffffff1614610332576040517f08c379a000000000000000000000000000000000000000000000000000000000815260040161032990610912565b60405180910390fd5b5f8211610374576040517f08c379a000000000000000000000000000000000000000000000000000000000815260040161036b90610815565b60405180910390fd5b5f60015f9054906101000a900473ffffffffffffffffffffffffffffffffffffffff1673ffffffffffffffffffffffffffffffffffffffff166370a08231306040518263ffffffff1660e01b81526004016103cf9190610763565b602060405180830381865afa1580156103ea573d5f803e3d5ffd5b505050506040513d601f19601f8201168201806040525081019061040e9190610790565b905082811015610453576040517f08c379a000000000000000000000000000000000000000000000000000000000815260040161044a9061097a565b60405180910390fd5b60015f9054906101000a900473ffffffffffffffffffffffffffffffffffffffff1673ffffffffffffffffffffffffffffffffffffffff1663a9059cbb83856040518363ffffffff1660e01b81526004016104af929190610998565b6020604051808303815f875af11580156104cb573d5f803e3d5ffd5b505050506040513d601f19601f820116820180604052508101906104ef919061089d565b508173ffffffffffffffffffffffffffffffffffffffff167fe7b379c6c1fa169e9079c25e9143b127637eef8ec8c9d5c06ddb4ab3e11958888460405161053691906105d6565b60405180910390a2505050565b60015f9054906101000a900473ffffffffffffffffffffffffffffffffffffffff1681565b60025f54036105ac576040517f08c379a00000000000000000000000000000000000000000000000000000000081526004016105a390610a09565b60405180910390fd5b60025f81905550565b60015f81905550565b5f819050919050565b6105d0816105be565b82525050565b5f6020820190506105e95f8301846105c7565b92915050565b5f80fd5b6105fc816105be565b8114610606575f80fd5b50565b5f81359050610617816105f3565b92915050565b5f60208284031215610632576106316105ef565b5b5f61063f84828501610609565b91505092915050565b5f73ffffffffffffffffffffffffffffffffffffffff82169050919050565b5f61067182610648565b9050919050565b61068181610667565b811461068b575f80fd5b50565b5f8135905061069c81610678565b92915050565b5f80604083850312156106b8576106b76105ef565b5b5f6106c585828601610609565b92505060206106d68582860161068e565b9150509250929050565b5f819050919050565b5f6107036106fe6106f984610648565b6106e0565b610648565b9050919050565b5f610714826106e9565b9050919050565b5f6107258261070a565b9050919050565b6107358161071b565b82525050565b5f60208201905061074e5f83018461072c565b92915050565b61075d81610667565b82525050565b5f6020820190506107765f830184610754565b92915050565b5f8151905061078a816105f3565b92915050565b5f602082840312156107a5576107a46105ef565b5b5f6107b28482850161077c565b91505092915050565b5f82825260208201905092915050565b7f416d6f756e74206d7573742062652067726561746572207468616e20300000005f82015250565b5f6107ff601d836107bb565b915061080a826107cb565b602082019050919050565b5f6020820190508181035f83015261082c816107f3565b9050919050565b5f6060820190506108465f830186610754565b6108536020830185610754565b61086060408301846105c7565b949350505050565b5f8115159050919050565b61087c81610868565b8114610886575f80fd5b50565b5f8151905061089781610873565b92915050565b5f602082840312156108b2576108b16105ef565b5b5f6108bf84828501610889565b91505092915050565b7f43616c6c6572206973206e6f74206f776e6572000000000000000000000000005f82015250565b5f6108fc6013836107bb565b9150610907826108c8565b602082019050919050565b5f6020820190508181035f830152610929816108f0565b9050919050565b7f4e6f7420656e6f75676820746f6b656e73206c6f636b656400000000000000005f82015250565b5f6109646018836107bb565b915061096f82610930565b602082019050919050565b5f6020820190508181035f83015261099181610958565b9050919050565b5f6040820190506109ab5f830185610754565b6109b860208301846105c7565b9392505050565b7f5265656e7472616e637947756172643a207265656e7472616e742063616c6c005f82015250565b5f6109f3601f836107bb565b91506109fe826109bf565b602082019050919050565b5f6020820190508181035f830152610a20816109e7565b905091905056fea26469706673582212206a2f541bcaa1b13b43286d25d2d9941a120c3d2b192e98db5e0fb502aa5f248a64736f6c63430008180033",
    "deployedBytecode": "0x60806040526004361061004e5760003560e01c806364a197f3146100d95780636f9fb98a14610114578063853828b61461013b5780638da5cb5b14610150578063f3fef3a3146100d9576100d4565b366100d45760003411610098576040805162461bcd60e51b815260206004820152600d60248201526c09aeae6e840e6cadcc8408aa89609b1b604482015290519081900360640190fd5b6040805133815234602082015281517f88a5966d370b9919b20f3e2c13ff65706f196a4e32cc2c12bf57088f88525874929181900390910190a1005b600080fd5b3480156100e557600080fd5b50610112600480360360408110156100fc57600080fd5b506001600160a01b038135169060200135610181565b005b34801561012057600080fd5b50610129610266565b60408051918252519081900360200190f35b34801561014757600080fd5b5061011261026a565b34801561015c57600080fd5b506101656102fc565b604080516001600160a01b039092168252519081900360200190f35b6000546001600160a01b031633146101d6576040805162461bcd60e51b815260206004820152601360248201527221b0b63632b91034b9903737ba1037bbb732b960691b604482015290519081900360640190fd5b8047101561022b576040805162461bcd60e51b815260206004820152601b60248201527f4e6f7420656e6f7567682045544820696e20636f6e74726163742e0000000000604482015290519081900360640190fd5b6040516001600160a01b0383169082156108fc029083906000818181858888f19350505050158015610261573d6000803e3d6000fd5b505050565b4790565b6000546001600160a01b031633146102bf576040805162461bcd60e51b815260206004820152601360248201527221b0b63632b91034b9903737ba1037bbb732b960691b604482015290519081900360640190fd5b600080546040516001600160a01b03909116914780156108fc02929091818181858888f193505050501580156102f9573d6000803e3d6000fd5b50565b6000546001600160a01b03168156fea26469706673582212202154a374840ca9d4c7eb12cd3f03db1a96a1801bd6a7557a2ee818a3c47e880064736f6c63430006060033",
    "linkReferences": {},
    "deployedLinkReferences": {}
}