{
    "_format": "hh-sol-artifact-1",
    "contractName": "ERCTokenLock",
    "sourceName": "contracts/ERC20side.sol",
    "abi": [
        {
            "inputs": [
                {
                    "internalType": "address",
                    "name": "_token",
                    "type": "address"
                }
            ],
            "stateMutability": "nonpayable",
            "type": "constructor"
        },
        {
            "anonymous": false,
            "inputs": [
                {
                    "indexed": false,
                    "internalType": "address",
                    "name": "sender",
                    "type": "address"
                },
                {
                    "indexed": false,
                    "internalType": "uint256",
                    "name": "amount",
                    "type": "uint256"
                }
            ],
            "name": "TokensLocked",
            "type": "event"
        },
        {
            "anonymous": false,
            "inputs": [
                {
                    "indexed": false,
                    "internalType": "address",
                    "name": "sender",
                    "type": "address"
                },
                {
                    "indexed": false,
                    "internalType": "uint256",
                    "name": "amount",
                    "type": "uint256"
                }
            ],
            "name": "TokensUnlocked",
            "type": "event"
        },
        {
            "inputs": [
                {
                    "internalType": "address",
                    "name": "_tokenupdate",
                    "type": "address"
                }
            ],
            "name": "Tokenupdate",
            "outputs": [],
            "stateMutability": "nonpayable",
            "type": "function"
        },
        {
            "inputs": [],
            "name": "getBalance",
            "outputs": [
                {
                    "internalType": "uint256",
                    "name": "",
                    "type": "uint256"
                }
            ],
            "stateMutability": "view",
            "type": "function"
        },
        {
            "inputs": [
                {
                    "internalType": "uint256",
                    "name": "_amount",
                    "type": "uint256"
                }
            ],
            "name": "lockTokens",
            "outputs": [],
            "stateMutability": "nonpayable",
            "type": "function"
        },
        {
            "inputs": [],
            "name": "token",
            "outputs": [
                {
                    "internalType": "contract IERC20",
                    "name": "",
                    "type": "address"
                }
            ],
            "stateMutability": "view",
            "type": "function"
        },
        {
            "inputs": [
                {
                    "internalType": "uint256",
                    "name": "_amount",
                    "type": "uint256"
                },
                {
                    "internalType": "address",
                    "name": "_resiver",
                    "type": "address"
                }
            ],
            "name": "unlockTokens",
            "outputs": [],
            "stateMutability": "nonpayable",
            "type": "function"
        }
    ],
    "bytecode": "60806040525f600260146101000a81548160ff021916908315150217905550348015610029575f80fd5b50604051610c36380380610c36833981810160405281019061004b9190610136565b60015f819055508060015f6101000a81548173ffffffffffffffffffffffffffffffffffffffff021916908373ffffffffffffffffffffffffffffffffffffffff1602179055503360025f6101000a81548173ffffffffffffffffffffffffffffffffffffffff021916908373ffffffffffffffffffffffffffffffffffffffff16021790555050610161565b5f80fd5b5f73ffffffffffffffffffffffffffffffffffffffff82169050919050565b5f610105826100dc565b9050919050565b610115816100fb565b811461011f575f80fd5b50565b5f815190506101308161010c565b92915050565b5f6020828403121561014b5761014a6100d8565b5b5f61015884828501610122565b91505092915050565b610ac88061016e5f395ff3fe608060405234801561000f575f80fd5b5060043610610055575f3560e01c806312065fe0146100595780636e27d889146100775780637fde442414610093578063e0aa583b146100af578063fc0c546a146100cb575b5f80fd5b6100616100e9565b60405161006e9190610616565b60405180910390f35b610091600480360381019061008c919061065d565b610188565b005b6100ad60048036038101906100a891906106e2565b6102b5565b005b6100c960048036038101906100c49190610720565b610540565b005b6100d3610583565b6040516100e091906107a6565b60405180910390f35b5f60015f9054906101000a900473ffffffffffffffffffffffffffffffffffffffff1673ffffffffffffffffffffffffffffffffffffffff166370a08231306040518263ffffffff1660e01b815260040161014491906107ce565b602060405180830381865afa15801561015f573d5f803e3d5ffd5b505050506040513d601f19601f8201168201806040525081019061018391906107fb565b905090565b6101906105a8565b5f81116101d2576040517f08c379a00000000000000000000000000000000000000000000000000000000081526004016101c990610880565b60405180910390fd5b60015f9054906101000a900473ffffffffffffffffffffffffffffffffffffffff1673ffffffffffffffffffffffffffffffffffffffff166323b872dd3330846040518463ffffffff1660e01b81526004016102309392919061089e565b6020604051808303815f875af115801561024c573d5f803e3d5ffd5b505050506040513d601f19601f820116820180604052508101906102709190610908565b507fac87f20a77d28ee8bbb58ec87ea8fa968b3393efae1a368fd50b767c2847391c33826040516102a2929190610933565b60405180910390a16102b26105f5565b50565b60025f9054906101000a900473ffffffffffffffffffffffffffffffffffffffff1673ffffffffffffffffffffffffffffffffffffffff163373ffffffffffffffffffffffffffffffffffffffff1614610344576040517f08c379a000000000000000000000000000000000000000000000000000000000815260040161033b906109a4565b60405180910390fd5b5f8211610386576040517f08c379a000000000000000000000000000000000000000000000000000000000815260040161037d90610880565b60405180910390fd5b5f60015f9054906101000a900473ffffffffffffffffffffffffffffffffffffffff1673ffffffffffffffffffffffffffffffffffffffff166370a08231306040518263ffffffff1660e01b81526004016103e191906107ce565b602060405180830381865afa1580156103fc573d5f803e3d5ffd5b505050506040513d601f19601f8201168201806040525081019061042091906107fb565b905082811015610465576040517f08c379a000000000000000000000000000000000000000000000000000000000815260040161045c90610a0c565b60405180910390fd5b60015f9054906101000a900473ffffffffffffffffffffffffffffffffffffffff1673ffffffffffffffffffffffffffffffffffffffff1663a9059cbb83856040518363ffffffff1660e01b81526004016104c1929190610933565b6020604051808303815f875af11580156104dd573d5f803e3d5ffd5b505050506040513d601f19601f820116820180604052508101906105019190610908565b507fe7b379c6c1fa169e9079c25e9143b127637eef8ec8c9d5c06ddb4ab3e11958888284604051610533929190610933565b60405180910390a1505050565b8060015f6101000a81548173ffffffffffffffffffffffffffffffffffffffff021916908373ffffffffffffffffffffffffffffffffffffffff16021790555050565b60015f9054906101000a900473ffffffffffffffffffffffffffffffffffffffff1681565b60025f54036105ec576040517f08c379a00000000000000000000000000000000000000000000000000000000081526004016105e390610a74565b60405180910390fd5b60025f81905550565b60015f81905550565b5f819050919050565b610610816105fe565b82525050565b5f6020820190506106295f830184610607565b92915050565b5f80fd5b61063c816105fe565b8114610646575f80fd5b50565b5f8135905061065781610633565b92915050565b5f602082840312156106725761067161062f565b5b5f61067f84828501610649565b91505092915050565b5f73ffffffffffffffffffffffffffffffffffffffff82169050919050565b5f6106b182610688565b9050919050565b6106c1816106a7565b81146106cb575f80fd5b50565b5f813590506106dc816106b8565b92915050565b5f80604083850312156106f8576106f761062f565b5b5f61070585828601610649565b9250506020610716858286016106ce565b9150509250929050565b5f602082840312156107355761073461062f565b5b5f610742848285016106ce565b91505092915050565b5f819050919050565b5f61076e61076961076484610688565b61074b565b610688565b9050919050565b5f61077f82610754565b9050919050565b5f61079082610775565b9050919050565b6107a081610786565b82525050565b5f6020820190506107b95f830184610797565b92915050565b6107c8816106a7565b82525050565b5f6020820190506107e15f8301846107bf565b92915050565b5f815190506107f581610633565b92915050565b5f602082840312156108105761080f61062f565b5b5f61081d848285016107e7565b91505092915050565b5f82825260208201905092915050565b7f416d6f756e74206d7573742062652067726561746572207468616e20300000005f82015250565b5f61086a601d83610826565b915061087582610836565b602082019050919050565b5f6020820190508181035f8301526108978161085e565b9050919050565b5f6060820190506108b15f8301866107bf565b6108be60208301856107bf565b6108cb6040830184610607565b949350505050565b5f8115159050919050565b6108e7816108d3565b81146108f1575f80fd5b50565b5f81519050610902816108de565b92915050565b5f6020828403121561091d5761091c61062f565b5b5f61092a848285016108f4565b91505092915050565b5f6040820190506109465f8301856107bf565b6109536020830184610607565b9392505050565b7f43616c6c6572206973206e6f74206f776e6572000000000000000000000000005f82015250565b5f61098e601383610826565b91506109998261095a565b602082019050919050565b5f6020820190508181035f8301526109bb81610982565b9050919050565b7f4e6f7420656e6f75676820746f6b656e73206c6f636b656400000000000000005f82015250565b5f6109f6601883610826565b9150610a01826109c2565b602082019050919050565b5f6020820190508181035f830152610a23816109ea565b9050919050565b7f5265656e7472616e637947756172643a207265656e7472616e742063616c6c005f82015250565b5f610a5e601f83610826565b9150610a6982610a2a565b602082019050919050565b5f6020820190508181035f830152610a8b81610a52565b905091905056fea2646970667358221220a396e35b34a6769b6d911a6e4719a9689d34102b1a2ff1c79f78c3cda08fb47464736f6c63430008180033",
    "deployedBytecode": "0x60806040526004361061004e5760003560e01c806364a197f3146100d95780636f9fb98a14610114578063853828b61461013b5780638da5cb5b14610150578063f3fef3a3146100d9576100d4565b366100d45760003411610098576040805162461bcd60e51b815260206004820152600d60248201526c09aeae6e840e6cadcc8408aa89609b1b604482015290519081900360640190fd5b6040805133815234602082015281517f88a5966d370b9919b20f3e2c13ff65706f196a4e32cc2c12bf57088f88525874929181900390910190a1005b600080fd5b3480156100e557600080fd5b50610112600480360360408110156100fc57600080fd5b506001600160a01b038135169060200135610181565b005b34801561012057600080fd5b50610129610266565b60408051918252519081900360200190f35b34801561014757600080fd5b5061011261026a565b34801561015c57600080fd5b506101656102fc565b604080516001600160a01b039092168252519081900360200190f35b6000546001600160a01b031633146101d6576040805162461bcd60e51b815260206004820152601360248201527221b0b63632b91034b9903737ba1037bbb732b960691b604482015290519081900360640190fd5b8047101561022b576040805162461bcd60e51b815260206004820152601b60248201527f4e6f7420656e6f7567682045544820696e20636f6e74726163742e0000000000604482015290519081900360640190fd5b6040516001600160a01b0383169082156108fc029083906000818181858888f19350505050158015610261573d6000803e3d6000fd5b505050565b4790565b6000546001600160a01b031633146102bf576040805162461bcd60e51b815260206004820152601360248201527221b0b63632b91034b9903737ba1037bbb732b960691b604482015290519081900360640190fd5b600080546040516001600160a01b03909116914780156108fc02929091818181858888f193505050501580156102f9573d6000803e3d6000fd5b50565b6000546001600160a01b03168156fea26469706673582212202154a374840ca9d4c7eb12cd3f03db1a96a1801bd6a7557a2ee818a3c47e880064736f6c63430006060033",
    "linkReferences": {},
    "deployedLinkReferences": {}
}