{
    "_format": "hh-sol-artifact-1",
    "contractName": "nativaLocker",
    "sourceName": "contracts/Nativeside.sol",
    "abi": [
        {
            "inputs": [],
            "stateMutability": "nonpayable",
            "type": "constructor"
        },
        {
            "anonymous": false,
            "inputs": [
                {
                    "indexed": false,
                    "internalType": "address",
                    "name": "sender",
                    "type": "address"
                },
                {
                    "indexed": false,
                    "internalType": "uint256",
                    "name": "amount",
                    "type": "uint256"
                }
            ],
            "name": "Received",
            "type": "event"
        },
        {
            "inputs": [],
            "name": "getContractBalance",
            "outputs": [
                {
                    "internalType": "uint256",
                    "name": "",
                    "type": "uint256"
                }
            ],
            "stateMutability": "view",
            "type": "function"
        },
        {
            "inputs": [],
            "name": "owner",
            "outputs": [
                {
                    "internalType": "address",
                    "name": "",
                    "type": "address"
                }
            ],
            "stateMutability": "view",
            "type": "function"
        },
        {
            "inputs": [
                {
                    "internalType": "address payable",
                    "name": "recipient",
                    "type": "address"
                },
                {
                    "internalType": "uint256",
                    "name": "amount",
                    "type": "uint256"
                }
            ],
            "name": "sendETH",
            "outputs": [],
            "stateMutability": "nonpayable",
            "type": "function"
        },
        {
            "inputs": [
                {
                    "internalType": "address payable",
                    "name": "receiver",
                    "type": "address"
                },
                {
                    "internalType": "uint256",
                    "name": "amount",
                    "type": "uint256"
                }
            ],
            "name": "withdraw",
            "outputs": [],
            "stateMutability": "nonpayable",
            "type": "function"
        },
        {
            "inputs": [],
            "name": "withdrawAll",
            "outputs": [],
            "stateMutability": "nonpayable",
            "type": "function"
        },
        {
            "inputs": [
                {
                    "internalType": "contract IERC20",
                    "name": "token",
                    "type": "address"
                }
            ],
            "name": "withdrawERC20",
            "outputs": [],
            "stateMutability": "nonpayable",
            "type": "function"
        },
        {
            "stateMutability": "payable",
            "type": "receive"
        }
    ],
    "bytecode": "608060405234801561000f575f80fd5b50335f806101000a81548173ffffffffffffffffffffffffffffffffffffffff021916908373ffffffffffffffffffffffffffffffffffffffff160217905550610b378061005c5f395ff3fe608060405260043610610058575f3560e01c806364a197f3146100de5780636f9fb98a14610106578063853828b6146101305780638da5cb5b14610146578063f3fef3a314610170578063f4f3b20014610198576100da565b366100da575f341161009f576040517f08c379a00000000000000000000000000000000000000000000000000000000081526004016100969061074f565b60405180910390fd5b7f88a5966d370b9919b20f3e2c13ff65706f196a4e32cc2c12bf57088f8852587433346040516100d09291906107c4565b60405180910390a1005b5f80fd5b3480156100e9575f80fd5b5061010460048036038101906100ff9190610854565b6101c0565b005b348015610111575f80fd5b5061011a6102d8565b6040516101279190610892565b60405180910390f35b34801561013b575f80fd5b506101446102df565b005b348015610151575f80fd5b5061015a6103d1565b60405161016791906108ab565b60405180910390f35b34801561017b575f80fd5b5061019660048036038101906101919190610854565b6103f4565b005b3480156101a3575f80fd5b506101be60048036038101906101b991906108ff565b61050c565b005b5f8054906101000a900473ffffffffffffffffffffffffffffffffffffffff1673ffffffffffffffffffffffffffffffffffffffff163373ffffffffffffffffffffffffffffffffffffffff161461024d576040517f08c379a000000000000000000000000000000000000000000000000000000000815260040161024490610974565b60405180910390fd5b80471015610290576040517f08c379a0000000000000000000000000000000000000000000000000000000008152600401610287906109dc565b60405180910390fd5b8173ffffffffffffffffffffffffffffffffffffffff166108fc8290811502906040515f60405180830381858888f193505050501580156102d3573d5f803e3d5ffd5b505050565b5f47905090565b5f8054906101000a900473ffffffffffffffffffffffffffffffffffffffff1673ffffffffffffffffffffffffffffffffffffffff163373ffffffffffffffffffffffffffffffffffffffff161461036c576040517f08c379a000000000000000000000000000000000000000000000000000000000815260040161036390610974565b60405180910390fd5b5f8054906101000a900473ffffffffffffffffffffffffffffffffffffffff1673ffffffffffffffffffffffffffffffffffffffff166108fc4790811502906040515f60405180830381858888f193505050501580156103ce573d5f803e3d5ffd5b50565b5f8054906101000a900473ffffffffffffffffffffffffffffffffffffffff1681565b5f8054906101000a900473ffffffffffffffffffffffffffffffffffffffff1673ffffffffffffffffffffffffffffffffffffffff163373ffffffffffffffffffffffffffffffffffffffff1614610481576040517f08c379a000000000000000000000000000000000000000000000000000000000815260040161047890610974565b60405180910390fd5b804710156104c4576040517f08c379a00000000000000000000000000000000000000000000000000000000081526004016104bb906109dc565b60405180910390fd5b8173ffffffffffffffffffffffffffffffffffffffff166108fc8290811502906040515f60405180830381858888f19350505050158015610507573d5f803e3d5ffd5b505050565b5f8054906101000a900473ffffffffffffffffffffffffffffffffffffffff1673ffffffffffffffffffffffffffffffffffffffff163373ffffffffffffffffffffffffffffffffffffffff1614610599576040517f08c379a000000000000000000000000000000000000000000000000000000000815260040161059090610974565b60405180910390fd5b5f8173ffffffffffffffffffffffffffffffffffffffff166370a08231306040518263ffffffff1660e01b81526004016105d391906108ab565b602060405180830381865afa1580156105ee573d5f803e3d5ffd5b505050506040513d601f19601f820116820180604052508101906106129190610a0e565b90505f8111610656576040517f08c379a000000000000000000000000000000000000000000000000000000000815260040161064d90610a83565b60405180910390fd5b8173ffffffffffffffffffffffffffffffffffffffff1663a9059cbb5f8054906101000a900473ffffffffffffffffffffffffffffffffffffffff16836040518363ffffffff1660e01b81526004016106b09291906107c4565b6020604051808303815f875af11580156106cc573d5f803e3d5ffd5b505050506040513d601f19601f820116820180604052508101906106f09190610ad6565b505050565b5f82825260208201905092915050565b7f4d7573742073656e6420455448000000000000000000000000000000000000005f82015250565b5f610739600d836106f5565b915061074482610705565b602082019050919050565b5f6020820190508181035f8301526107668161072d565b9050919050565b5f73ffffffffffffffffffffffffffffffffffffffff82169050919050565b5f6107968261076d565b9050919050565b6107a68161078c565b82525050565b5f819050919050565b6107be816107ac565b82525050565b5f6040820190506107d75f83018561079d565b6107e460208301846107b5565b9392505050565b5f80fd5b5f6107f98261076d565b9050919050565b610809816107ef565b8114610813575f80fd5b50565b5f8135905061082481610800565b92915050565b610833816107ac565b811461083d575f80fd5b50565b5f8135905061084e8161082a565b92915050565b5f806040838503121561086a576108696107eb565b5b5f61087785828601610816565b925050602061088885828601610840565b9150509250929050565b5f6020820190506108a55f8301846107b5565b92915050565b5f6020820190506108be5f83018461079d565b92915050565b5f6108ce8261078c565b9050919050565b6108de816108c4565b81146108e8575f80fd5b50565b5f813590506108f9816108d5565b92915050565b5f60208284031215610914576109136107eb565b5b5f610921848285016108eb565b91505092915050565b7f43616c6c6572206973206e6f74206f776e6572000000000000000000000000005f82015250565b5f61095e6013836106f5565b91506109698261092a565b602082019050919050565b5f6020820190508181035f83015261098b81610952565b9050919050565b7f4e6f7420656e6f7567682045544820696e20636f6e74726163742e00000000005f82015250565b5f6109c6601b836106f5565b91506109d182610992565b602082019050919050565b5f6020820190508181035f8301526109f3816109ba565b9050919050565b5f81519050610a088161082a565b92915050565b5f60208284031215610a2357610a226107eb565b5b5f610a30848285016109fa565b91505092915050565b7f4e6f20455243323020746f6b656e7320746f2077697468647261772e000000005f82015250565b5f610a6d601c836106f5565b9150610a7882610a39565b602082019050919050565b5f6020820190508181035f830152610a9a81610a61565b9050919050565b5f8115159050919050565b610ab581610aa1565b8114610abf575f80fd5b50565b5f81519050610ad081610aac565b92915050565b5f60208284031215610aeb57610aea6107eb565b5b5f610af884828501610ac2565b9150509291505056fea26469706673582212209c430d5b3c2ca96d8bc64a87bfd56e4631ad8104bdd41b879b530c81029427d364736f6c63430008180033",
    "deployedBytecode": "0x60806040526004361061004e5760003560e01c806364a197f3146100d95780636f9fb98a14610114578063853828b61461013b5780638da5cb5b14610150578063f3fef3a3146100d9576100d4565b366100d45760003411610098576040805162461bcd60e51b815260206004820152600d60248201526c09aeae6e840e6cadcc8408aa89609b1b604482015290519081900360640190fd5b6040805133815234602082015281517f88a5966d370b9919b20f3e2c13ff65706f196a4e32cc2c12bf57088f88525874929181900390910190a1005b600080fd5b3480156100e557600080fd5b50610112600480360360408110156100fc57600080fd5b506001600160a01b038135169060200135610181565b005b34801561012057600080fd5b50610129610266565b60408051918252519081900360200190f35b34801561014757600080fd5b5061011261026a565b34801561015c57600080fd5b506101656102fc565b604080516001600160a01b039092168252519081900360200190f35b6000546001600160a01b031633146101d6576040805162461bcd60e51b815260206004820152601360248201527221b0b63632b91034b9903737ba1037bbb732b960691b604482015290519081900360640190fd5b8047101561022b576040805162461bcd60e51b815260206004820152601b60248201527f4e6f7420656e6f7567682045544820696e20636f6e74726163742e0000000000604482015290519081900360640190fd5b6040516001600160a01b0383169082156108fc029083906000818181858888f19350505050158015610261573d6000803e3d6000fd5b505050565b4790565b6000546001600160a01b031633146102bf576040805162461bcd60e51b815260206004820152601360248201527221b0b63632b91034b9903737ba1037bbb732b960691b604482015290519081900360640190fd5b600080546040516001600160a01b03909116914780156108fc02929091818181858888f193505050501580156102f9573d6000803e3d6000fd5b50565b6000546001600160a01b03168156fea26469706673582212202154a374840ca9d4c7eb12cd3f03db1a96a1801bd6a7557a2ee818a3c47e880064736f6c63430006060033",
    "linkReferences": {},
    "deployedLinkReferences": {}
}